:020000040800F2
:1000000000A00020050600086D0600086D06000827
:100010006D0600086D0600086D060008000000006F
:100020000000000000000000000000006D06000855
:100030006D060008000000006D060008E564000879
:100040006D0600086D0600086D0600086D060008C4
:100050006D0600086D0600086D0600086D060008B4
:100060006D060008DF6400086D0600086D060008D4
:100070006D0600086D060008B11101086D06000844
:100080006D0600086D0600086D0600086D06000884
:100090006D0600086D0600086D0600086D06000874
:1000A00045160108FD15010855160108ED15010852
:1000B0000116010811160108211601086D06000835
:1000C0006D0600086D0600086D0600086D06000844
:1000D0006D060008711201087D1201086D06000806
:1000E000D96400086D0600086D0600086D0600085A
:1000F000411601086D060008311601086D0600085A
:100100000000000000000000000000006D06000874
:100110006D0600086D0600086D0600086D060008F3
:100120006D0600086D0600086D0600086D060008E3
:100130006D0600086D0600080000000000000000C9
:100140006D0600086D0600086D060008000000003E
:10015000000000000000000000000000000000009F
:1001600000000000000000006D0600086D06000899
:100170006D06000800000000000000000000000004
:08018000000000006D060008FC
:1001C000844641EA000313F003036DD1403A41D362
:1001D00051F8043B40F8043B51F8043B40F8043B21
:1001E00051F8043B40F8043B51F8043B40F8043B11
:1001F00051F8043B40F8043B51F8043B40F8043B01
:1002000051F8043B40F8043B51F8043B40F8043BF0
:1002100051F8043B40F8043B51F8043B40F8043BE0
:1002200051F8043B40F8043B51F8043B40F8043BD0
:1002300051F8043B40F8043B51F8043B40F8043BC0
:1002400051F8043B40F8043B51F8043B40F8043BB0
:10025000403ABDD2303211D351F8043B40F8043B50
:1002600051F8043B40F8043B51F8043B40F8043B90
:1002700051F8043B40F8043B103AEDD20C3205D360
:1002800051F8043B40F8043B043AF9D2043208D058
:10029000D2071CBF11F8013B00F8013B01D30B88CA
:1002A00003806046704700BF082A13D38B078DD0A8
:1002B00010F003038AD0C3F10403D21ADB071CBF7A
:1002C00011F8013B00F8013B80D331F8023B20F8E4
:1002D000023B7BE7043AD9D3013A11F8013B00F81D
:1002E000013BF9D20B7803704B7843708B788370A5
:1002F00060467047000000000000000000000000A1
:1003000030B490F800F020F007016FF0000C10F00E
:10031000070491F820F040F048804FF000046FF09F
:100320000700D1E9002391F840F000F1080082FABB
:100330004CF2A4FA8CF283FA4CF3A2FA8CF34BBB86
:10034000D1E9022382FA4CF200F10800A4FA8CF2FF
:1003500083FA4CF3A2FA8CF3E3B9D1E9042382FACD
:100360004CF200F10800A4FA8CF283FA4CF3A2FAE2
:100370008CF37BB9D1E9062301F1200182FA4CF21A
:1003800000F10800A4FA8CF283FA4CF3A2FA8CF381
:10039000002BC6D0002A04BF04301A4612BAB2FAA3
:1003A00082F200EBD20030BC7047D1E9002304F0A8
:1003B0000305C4F100004FEAC50514F0040F91F8DD
:1003C00040F00CFA05F562EA05021CBF63EA05037A
:1003D00062464FF00004AAE753B94AB9002908BFA2
:1003E00000281CBF4FF0FF314FF0FF3000F0E2B8A3
:1003F000ADF1080C6DE904CE13F0F6FFDDF804E072
:10040000DDE9022304B0704700F1340191E83800BF
:100410009C46A6464CF8045D90E8FF0FE54600BDFB
:1004200090EC210B704700BF80EC210B704700BFA0
:1004300090EC200B704700BF80EC200B704700BF92
:10044000D0EC200B704700BFC0EC200B704700BF02
:10045000F0EC0201F0EC0211F0EC0221F0EC0231C0
:10046000F0EC0241F0EC0251F0EC0261F0EC0271B0
:10047000F0EC0281F0EC0291F0EC02A1F0EC02B1A0
:10048000F0EC02C1F0EC02D1F0EC02E1F0EC02F190
:10049000704700BFE0EC0201E0EC0211E0EC022149
:1004A000E0EC0231E0EC0241E0EC0251E0EC0261F0
:1004B000E0EC0271E0EC0281E0EC0291E0EC02A1E0
:1004C000E0EC02B1E0EC02C1E0EC02D1E0EC02E1D0
:1004D000E0EC02F1704700BFB0FC0181B0FC01917B
:1004E000B0FC01A1B0FC01B1704700BFA0FC0181CC
:1004F000A0FC0191A0FC01A1A0FC01B1704700BFCC
:10050000EC4600B52DE900502DE9FF1F4FF0000328
:100510002DE90C0001A914F041FADDF840E012B019
:10052000704700BFEC4600B52DE900502DE9FF1FD4
:100530004FF000032DE90C0001A914F06DFADDF86D
:1005400040E012B0704700BFEC4600B52DE9005006
:100550002DE9FF1F4FF000032DE90C0001A914F055
:100560007DFADDF840E012B0704700BFEC4600B500
:100570002DE900502DE9FF1F4FF000032DE90C007D
:1005800001AB14F041FADDF840E012B0704700BF53
:10059000EC4600B52DE900502DE9FF1F4FF0000398
:1005A0002DE90C0001AA14F0B5FADDF840E012B014
:1005B000704700BF704700BF002103200BF07CBFD5
:1005C000012103200BF078BF9FED010A0CF0D8B990
:1005D0000000C84200200CF06DBD08B5FFF7ECFF2D
:1005E000BDE8084096200CF02FBA022100200BF045
:1005F00063BF08B569200CF03DFABDE80840FFF77D
:10060000DFBF000011481249026800608A4218D01A
:10061000002103E00F4B5B58435004310E480F4B51
:1006200042189A42F6D30E4A02E0002342F8043BF5
:100630000C4B9A42F9D301F081F900F0CBF97047E5
:10064000FEE70948D0F800D040680047FC9F002032
:10065000EFBEADDEEC6F010800000020D0040020EA
:10066000D0040020402A002000D8FF1FFEE7000031
:10067000F0B5C24EC24FC34C87B002F061FA01F030
:10068000C1FA01F00FFD01F06FFD337843F0010373
:100690003370BD4B4FF47002C3F8882001F082F92B
:1006A000386005F047FF01F02BFB0FF09BFE0CF0CC
:1006B00095FD402001F02EFB0146B44807F096F866
:1006C000607904F1100105F035FD1422002101A824
:1006D00013F070FD4FF4802001F01CFB10B9AC4BFF
:1006E00001221A703378AB48AB4D43F004033370EA
:1006F0000FF04AFDA9480FF047FD00200FF0FCFA6B
:10070000A7480AF039FA00232B8094F8EF2094F8D8
:10071000F730B4F8F010A3480AF0B6FC18B92B88EB
:1007200043F002032B8094F8F8000AF017FD18B983
:100730002B8843F020032B8011F09CFA18B12B88F2
:1007400043F480732B8010F070F818B92B8843F0B5
:1007500080032B803B68012B02BF2B8843F04003B2
:100760002B80288808B105F03BFF33788E4D43F08D
:10077000020333704FF400532B854FF48043AB6179
:100780000F27AB8A9BB283F40053AB82AB8A9BB238
:1007900083F48043AB82AB8A9BB283F40043AB8289
:1007A000192005F012FF013F192005F00EFF17F088
:1007B000FF07E6D14FF48043AB614FF40053AB61C8
:1007C0004FF40043AB61082001F05EFD08B10AF070
:1007D00085FA04F099FA6D4807F026FFB4F8DE10A8
:1007E000724802F0F1FE724B704819687D3108F0D2
:1007F000EBFD0FF0BFFE08F04FFD05F07BFE6D4BEB
:1008000018606379052B03D14FF47A7009F00EFD5F
:1008100002F0A6FC4FF47A700AF06CFBC82011F0CD
:1008200025F911F02FF911F011FA10F055FF624A75
:10083000137843F008031370604A137840F60200FF
:1008400023F00203137001F065FA10B15C4809F05F
:1008500073FE01F055FA4E4B01221A70337863F0A3
:100860007F0333700BF09CF90CF048FBFFF7ACFEF4
:1008700010F0F6FD4FF4967005F0A7FE10F0F2FEB2
:100880006279182A9DBF4F4BD34003F00103002328
:1008900002208DF80E3006F067FF8DF80900022067
:1008A00001F038FA8DF80A00402001F033FA8DF893
:1008B0000C004FF4005001F02DFA8DF804004FF4B5
:1008C000004001F027FA8DF807004FF4006001F0B6
:1008D00021FA20B194F82B01C31E584258418DF8DB
:1008E00008004FF4803001F015FA8DF80D0001205A
:1008F00001F010FA8DF80500082001F00BFA8DF8D0
:1009000006004FF4802001F005FAB4F8E0308DF8CD
:100910000B00ADF810304FF48050B4F8D430ADF87F
:10092000123001F0F7F918B1B4F8DC30ADF812303C
:10093000BDF8103094F87C01B3F5FA7F84BF002332
:10094000ADF8123010F048F901A80FF001FF05F0E2
:100950000DFC1D4B1B780BB105F074FF0BF09EFFD7
:100960000CF0DEF8194B93F9000088BB06210BF060
:10097000EFFF02210A200BF0ABFF29E04424002006
:10098000D80400203405002000ED00E0C40600205B
:100990005124002000300140902000200038004009
:1009A0001C060020180600200008004864060020ED
:1009B000300500201005002055240020562400207A
:1009C0005C06002000410001202600209400002049
:1009D00007B0F0BD08B5FFF74BFE00F0C1FEFCE725
:1009E000074B01881B68B3F85C200A44A3F85C201D
:1009F0004188B3F85E200A44A3F85E2001F000BCF1
:100A00003005002008B5174BB3F9082142B1B3F9FE
:100A10000A212AB1B3F90C3113B1134B1B78BBB9BE
:100A2000012001F043FC09F007FCA8B10AF068FAC4
:100A300090B1002001F044FC002001F04BFC78B99B
:100A40000A4B1B6801205BB9BDE8084001F042BCBD
:100A5000012001F035FCE6E7002001F027FCEBE780
:100A600008BD00BF3405002086000020B00D002026
:100A70002DE9F04FB54AB64B1768B3F906307A89BD
:100A80002DED028B934289B0C0F25B81B3F5FA6F12
:100A9000FC79BDBF9B1A13FB04F3C2F5FA62C4F1E3
:100AA0006404BCBF93FBF2F3C3F16404A94BAA4DE9
:100AB000B3F83E81A94BD3F800E0A54B0693A84BB1
:100AC0000593A84B0493A84B03933B1DF4460020C9
:100AD00064220793069B33F9029B0693A9EB080354
:100AE00003F2F31140F2E636B14200F22C81002B02
:100AF000B8BF5B42022800F059819EF8151119B168
:100B00009942B4BF5B1A00239849B3FBF2FB0E462F
:100B100031F91BA00BF1010136F911104FF69C764B
:100B20001BFB0636A1EB0A01714391FBF2F1514424
:100B300029800799095C11FB03F38D4993FBF1F3BD
:100B400064339BB2634393FBF2F31CF8011F059ED1
:100B5000594391FBF2F106F8011B9CF80B10059626
:100B6000049E594391FBF2F106F8011B9CF8161004
:100B700004965943039B91FBF2F103F8011B039385
:100B80007C4B022814BF1C549A70C145B8BF2B88F7
:100B900000F10100BCBF5B422B80032805F1020578
:100BA00098D102F0DDFC6A4D30B1B5F9062040F273
:100BB000DC539A42C8BFEB806F4B1B7813B16F4B6D
:100BC0001B88EB80634CB5F90600B4F84011624E07
:100BD0004FF4FA6201F007FDB4F840314FF47A7235
:100BE000C01A64245043C3F5FA63B0FBF3F0644BBE
:100BF00090FBF4F2571C33F9121033F917306FF0F1
:100C000063075B1A07FB0200434393FBF4F30B44B7
:100C1000F3805C4B5C4C1B78002B00F0F180237858
:100C20005B0740F1ED800AF045FF30800AF048FF95
:100C30007080564B1B885F062FD5554B1888554B37
:100C40001B88C01A00B201F033FDF0EE408A01F0BB
:100C5000B3FCB0EE408AB0EE680A01F04BFCB6F986
:100C6000023006EE903AB6F9003007EE103AF8EE90
:100C7000E66AB8EEC77A67EE007A20EE660AE6EE1C
:100C8000887AA7EE080AFDEEE77ABDEEC00A10EEFC
:100C9000103A338017EE903A7380022001F03AF850
:100CA0003D4E50B13D4A3168136845F20720CB1ADA
:100CB000834202DD116009F06FFC4FF4006001F027
:100CC00029F868B1364A3068136845F20721C31A1B
:100CD0008B4205DD21781060C1F3800109F0D4FC5E
:100CE0003068A0F5A443083B45F2072293420BDD90
:100CF000B5F90620237829490092294A0968126823
:100D0000C3F3800309F092FD05F044FD23785D07ED
:100D10004FF008007BD501F0C9FA072001F0D0FAA6
:100D2000062001F0CDFA06F08FFD1E4B9B680BB13B
:100D30001D48984709B0BDEC028BBDE8F04F0BF0A1
:100D400087BF6424B2E64FF4FA73D3E62805002087
:100D5000C42100203405002024210020300500207B
:100D6000612400205E2400205B240020522100200A
:100D70000CFEFFFF58240020F625002096000020DE
:100D80002C2100201826002056240020AE20002010
:100D9000D82000200000002014050020F8040020C6
:100DA000F404002030120020A82000209EF8161124
:100DB00019B19942B4BF5B1A0023B3FBF2F63D4967
:100DC00006F1010B31F916A031F91B104FF69C7B8F
:100DD00016FB0B36A1EB0A017143374E91FBF2F182
:100DE00096F9EE605144764211FB06F1334EB18024
:100DF000B97911FB03F3324993FBF1F36433A4E6B1
:100E00000AF064FE4FF0FF300BF038FB11E701F001
:100E100057FA2C4B1B68D80710D42B4A237812782A
:100E2000110702D5294A1278CAB923F00103072015
:100E3000237001F045FA062001F038FA022001F093
:100E400049FA234D00B32A789AB11F4B1B781A0731
:100E50001DD5022001F034FA00232B7017E043F077
:100E600001030720237001F021FA062001F028FA7F
:100E7000E4E718484FF496710BF018FE20B10123F7
:100E800014482B700BF034FE2B78002BDDD1FFF7CC
:100E9000B9FD30B108F0ECF8237823F0010323709A
:100EA00041E72378DB0702D508F0E1F83BE708F0DB
:100EB000DFF838E7442100203405002024210020F9
:100EC0000CFEFFFF3C0F0020552400204F24002083
:100ED0004E240020880B002010B5234A13785907B0
:100EE00005D523F005030420137005F031FC1F4BDA
:100EF0001B7813B11E4B00221A701E4B1E4A002491
:100F00001C701E4B1C70012313701D4A14701D4A67
:100F100014701D4A13701D4B1C701D4B1C701D4B13
:100F200040F2B6321A601C4B78221A801B4B40F2FA
:100F300014521A801A4B1C601A4B1C601A4B042066
:100F40001C6001F0BDF9052001F0BAF9174B1C70C7
:100F5000174B1C70174B1C70174B1C70174B1C70D9
:100F6000BDE810400AF0A4BD56240020F72500205B
:100F7000A20000204C240020A1000020F625002023
:100F8000F5250020F4250020A0000020F3250020F6
:100F9000F22500209C0000209800002096000020F0
:100FA0004C12002000050020FC040020E825002051
:100FB000E7250020502400209A24002099240020B6
:100FC00008B525490B7813F0010F03F0040203D193
:100FD00022480068012838DC21480078002834D0F5
:100FE0001AB1BDE8084010F033BE1E4A1268500125
:100FF00031D49A072AD443F004030B701A4B1A78A1
:101000002AB901221A7005F08FFA184B1860184B94
:101010001B78C3B1174B184AB3F90030138005F0A1
:1010200083FA164B186005F07FFA154B93F8882168
:101030004FF47A7302FB0300124B1860BDE80840BE
:10104000052005F085BB104BE5E722B9BDE8084057
:10105000012005F083BB08BD56240020B40D0020FC
:101060004F2400203C0F00204C240020FC040020D2
:101070000C2600200824002000000020000500208D
:10108000340500200C050020D8200020094B1A78D8
:101090002AB100221A70084B01221A707047074AC1
:1010A000137883F00103137013B10C2005F050BBCB
:1010B0000D20FBE74A240020492400204B24002077
:1010C000194A1A4B11781B6810B591B11849097863
:1010D00049070ED51749B1F906001749B1F8401173
:1010E000884206DD13F0010101BF1448117032245B
:1010F0000480DB030BD5124B1A782AB9114A1278F7
:1011000012B90E4A3221118001221A7010BD0D4A07
:101110001378002BFAD0064B1B7813F00403F5D19B
:101120001370094BF0E700BF4B2400203C0F002058
:1011300056240020C421002034050020A4200020D3
:10114000482400204A240020492400202B4BB3F9D6
:10115000043040F2DC529342D4BFD31AA3F2DC53E2
:10116000B3F5967F10B5264A41DA264B1B8803F06B
:101170004403002B3BD013786BB1234BB3F90430FD
:10118000032B2EDD9B10452B2ADC002313701F4BF5
:101190001A881F4B1A801D4B18881D4B1B88C01ABC
:1011A00083B200B210F1B30F02DA03F5B47318B2D0
:1011B000B328C4BFA0F5B47000B21E226FF01D01A9
:1011C00001F011FA134B144C1B6814495B7A13FBA2
:1011D00000F000B24FF4C872A08001F004FAA080C1
:1011E00010BD002BB8BF03339B105B42CBE701233C
:1011F0001370064B1A88064B1A80F1E7C4210020B1
:1012000047240020AE200020BE230020D82000204C
:10121000AA200020300500202421002070FEFFFFBE
:1012200070B51A4C23685A1C012B226010D0022B77
:1012300018D03BB9082001F027F818B11449881FCD
:1012400009F058FD2368042BC4BF0023236070BD40
:10125000042001F019F80028F4D00E4B186810F0A3
:101260003BFCEFE7FFF7CEFB0B4D68B9094E30684A
:1012700002F04AF8094B93F9003013B930680AF0CC
:101280007BFD01232B70DDE70023FBE7F00400204A
:101290003C060020140500204F240020940000206C
:1012A0002DE9F843974C984D206808F0E9F94FF480
:1012B000805000F02FFD20B12B68DA0701D4FFF732
:1012C0000BFE206808F046FB4FF4807000F022FD12
:1012D00050B122688D4B9A4204D902F085F908B9C1
:1012E00002F08EF902F0CAF9894CB4F8DE1004F568
:1012F000987005F007FD064618B903F095FC03F059
:10130000A1FCDFF8409299F800305B0725D510204A
:1013100000F000FD08B37F4B1B78DF061DD405F0FD
:10132000EBFC7D4F002800F0858094F88831002E7A
:101330006ED14BB1794BD3F8008005F0F5F8A8EBEE
:101340000008B8F1000F05DB102005F001FA0123B9
:101350003B7002E0FFF7C0FD3E7094F8873194F8CF
:1013600086216F48003B18BF0123003A18BF0122B5
:10137000314605F0EDFC042000F0CCFC08B1FFF78D
:101380009FFE684E30687D3005F050FE664B1B783E
:1013900043B93068CD3006F0B5F8644B6049186841
:1013A00006F034F82B689E0747D5022000F06CFF4A
:1013B00000284DD1012000F057FF01232A68510772
:1013C00052D5002B50D0012000F04EFF584B1B8807
:1013D0009A0704D403F028FC022000F037FF99F8A4
:1013E00000305B0708D4524B1B8803F044031BB149
:1013F000504B1A88504B1A80022000F045FF0028FD
:1014000036D02B68DF0649D4042000F02DFF50E0D1
:101410004BB105F089F894F888214FF47A7302FBF8
:1014200003003E4B18603B78002B96D005F07AF90C
:1014300000238DE7002EF6D186E74FF4807000F090
:1014400069FC0028B6D002F0D5F80028ADD1B1E78C
:10145000374B1B88D80701D50023AFE703F0E4FB27
:10146000012000F0F3FEF7E7022000F0FDFEB6E7F2
:10147000082000F009FF0028C3D12B681B054FF49A
:1014800080703AD500F0E2FE6379082B01D00E2B74
:1014900036D1BDE8F843402000F0E6BE244B1B885F
:1014A0005E0706D4042000F0D1FE224B1A88224B9E
:1014B0001A802B68980613D51D4B1B88590602D439
:1014C000402000F0C3FE2B685A0641BF194A11881C
:1014D0001A4A118013F00803194A05D11370CCE79A
:1014E000402000F0C1FEEEE71378002BC5D1114B70
:1014F0001988124B19800123F0E700F0B5FEC3E70D
:10150000BDE8F883140500203C0F0020404B4C0040
:101510003405002055240020462400200C0500201E
:1015200064060020300500209D24002028050020AE
:10153000AE200020D8200020AA200020000000209B
:1015400050240020562400202DE9F7430DF1060019
:1015500008F00CFA2B4B2C481B882C4C00EE103A50
:101560000121B8EE400A04F06DFFBCEEC00ADFF8BE
:10157000ACC0BDF806009CF8002010EE103A9BB2FB
:10158000B0FBF3F0411CB4F9003009B2A2B3DFF8AC
:1015900088801F4F1F4E002538F902EBB6F90090E6
:1015A000B7F9002026F802EBAEEB090901355A43E2
:1015B000042D92FBF1F24A4427F8022BECD10023D0
:1015C0008CF8003003B2002B19DD124F104E124D73
:1015D0002380002037F9024B36F9022B013013FB30
:1015E00002F2042892FBF1F2A4EB020225F8022B8E
:1015F000F0D103B0BDE8F083013B1BB2E3E7002369
:101600002380F6E7A6200020EC0400209220002092
:10161000942000209C200020242100204D24002024
:1016200038B53D4B3D4D1B783D4A35F91330128896
:1016300093422FDB3B4A128893422BDC07F05EFF7C
:1016400020B30123384C394A2370137005F03CFB5A
:101650002478002C48D004F04DFF354B354A1860F3
:101660001368C31A002B17DB334B344C1B6803443D
:101670001360237833B1FEF7B0FF00232370304BA3
:1016800001221A70BDE83840FEF7AFBF07F03CFFFB
:101690000028D6D10023D5E72A4A2B492B4800231E
:1016A0001478ECB1032B06D051F8234020F81340F6
:1016B00001330132F4E7CB68EB80254B1B781BB17B
:1016C000244B1A88244B1A80244D002415F8013B22
:1016D00013B1E0B20BF072F90134062CF6D138BD2B
:1016E0000133042BE5D1E8E7154D2B78002BF6D01C
:1016F000144B154A1C705C709C70DC70144B1460A9
:1017000054609460D4601C70FEF773FF0B4B2C7018
:1017100001221A70E3E700BF23260020C421002025
:10172000102400200E2400202126002081240020E7
:101730000805002004050020B8000020B6000020A5
:101740001B2600201C260020581A002024210020DF
:101750001A2600200A240020AA2000201226002099
:101760002DE9F341614E05F07BF8306807F0FAFE91
:1017700000F0BAFD306807F075FF002800F0A68081
:10178000FFF78EFD5A4B01221A705A4B1B782BB172
:10179000042000F079FD08B101F06AFB564D04F019
:1017A000A9FEAB895549306023B10A68821A002A24
:1017B000C0F29980524C034420680B605C3004F006
:1017C0004DFB04F097FE4F4A4F4913683060C31A2F
:1017D0000B804E4B1060187810F0040003D04C4B77
:1017E0001B6813B1012009F063FF236893F856309A
:1017F000D3B1DFF84481474F0026B8F9003000EE3E
:10180000103A2368384693F85610B8EEC00A04F030
:1018100019FEBDEEC00A013610EE103A032E28F86C
:10182000023B07F10407E8D1FFF722F995F83D31B3
:101830000BB1FFF789FEFFF7F3FE2E4B01220820C4
:101840001A7000F021FD08B1FFF780FC042000F0C1
:101850001BFD00283DD0304B1B8803F40273002B86
:101860003DD105F049FA48B12C4BB3F90620B5F843
:1018700040319A42DEBF2A4B00229A80236893F8B7
:101880001C0148B1244B1B889B0705D004F0E6FBE4
:10189000234BDA881044D880224B206822490093D9
:1018A000224BB5F8FA201C68096800F15C03A047D8
:1018B00004F0C6FC1E4B1B780BB104F071FC01F068
:1018C000A1FF02B0BDE8F0410AF0A6BDFFF7A8FCF9
:1018D00064E7102000F0D8FC0028BCD1C1E715480F
:1018E00001F0F4F9BDE702B0BDE8F0811405002075
:1018F0004D2400204524002034050020E804002069
:101900003005002010050020A620002056240020CD
:101910004C120020DC040020AE200020C421002056
:101920002421002064060020280500202C0000202F
:1019300051240020C2060020BE2300201549D1F802
:10194000883043F47003C1F88830134B1A6842F0B2
:1019500001021A605868114A02405A601A6822F05F
:10196000847222F480321A601A6822F480221A608B
:101970005A6822F4FE025A60DA6A22F00F02DA6232
:10198000186B074A02401A6300229A604FF0006306
:101990008B60704700ED00E0001002400CC07FF843
:1019A000CCFC00FF84B0002301930293039303F166
:1019B000804303F504331A6842F480321A601A68CF
:1019C00002F400320292019A01320192029A1AB98B
:1019D000019AB2F5A04FF2D11A6812F4003218BF82
:1019E00001220292029A012A2BD102220392164A64
:1019F000122111605A685A605A685A605A6842F453
:101A000080625A605A6822F47C125A605A6842F422
:101A1000E8125A601A6842F080721A601A689201DD
:101A2000FCD55A6822F003025A605A6842F002025A
:101A30005A605A6802F00C02082AFAD1039804B0DE
:101A4000704701230393F9E70020024010B50F4BC4
:101A50001A786A2A18D1598840F24C52914213D10F
:101A60001A79BE2A10D193F84A25EF2A0CD1084CD6
:101A7000002213F8011BA342104682EA0102F8D1AA
:101A8000431A5842584110BD0020FCE700F00308FB
:101A90004CF50308002303800023436083604FF06C
:101AA000A063C360704741F62A6303804FF4487314
:101AB00043804FF41673C38070470000F8B52122AD
:101AC00004460021013012F075FB0B48234604F157
:101AD000200505210122002610F9017B9F709971D4
:101AE000DA715E7203F8081FAB42F5D10223A381BD
:101AF00052232370A280F8BDB05A0108014B187818
:101B0000704700BF5224002010B5064C206805F035
:101B100043FD206805F05CFD20680349BDE81040E6
:101B200005F06EBD280500200406002037B5324DB3
:101B3000324CFFF7E9FF05F027FD2A68214602F144
:101B40007D0005F00DFD04F1260009F0CDF92B68AC
:101B5000187803F087F804F1AE0001F01BFD04F1E2
:101B60002C0008F083FC04F1400008F085FC04F12F
:101B70006003009304F1BA0204F1BE03214604F1AC
:101B8000080004F0C5FA638C29681D4891ED190A14
:101B900007EE903AA38CF8EE677A01F16802C0ED87
:101BA000017A07EE903AB1F86030038091F87C300A
:101BB0008370F8EE677A94F8B9300373B1F81A318C
:101BC000C0ED027A03F072F82868234600F215127D
:101BD00000F16C0101F048F8286800F2151109F0D5
:101BE00061FF28680AF0F8F928686C3003B0BDE896
:101BF00030400FF035BF00BF300500200406002044
:101C00001805002070470000F8B507F083FC234B4F
:101C10006A221A7040F24C525A80BE221A71EF2288
:101C2000A3F84A2540F24D5100221846013929D126
:101C300080F84B2509F07EFC032440F24C573420F9
:101C400009F08EFC1648154E09F0B6FC04281DD18B
:101C5000002505F1006056F8041B00F57C3009F002
:101C6000C9FC042812D10435BD42F2D109F070FC40
:101C7000FFF7ECFE10B9042004F0B2FCBDE8F84018
:101C800007F060BC13F8014B6240CFE7013C14F051
:101C9000FF04D4D109F05CFCEDE700BF340500205F
:101CA00000F00308064B042828BF02201870054BDB
:101CB0000C2202FB0033044A1360FFF725BF00BF6C
:101CC000522400205A0A00202805002008B504F0FC
:101CD000B1FA322004F079FC074B1B685A0309D58E
:101CE000064B9B685B0305D4BDE8084040F2DC501E
:101CF00004F06BBC08BD00BF2C050020340500209B
:101D0000024B9A68024B1A60704700BF34050020EE
:101D10002C050020034B1B681840003818BF012019
:101D2000704700BF2C050020024A9368034393606C
:101D3000704700BF340500202DE9F84F40F24C52A7
:101D40002DED028B0021BA48BA4FDFF85483BA4C0C
:101D500012F030FAB64A02F5E2733B60B74B002648
:101D60001E7002F22653C8F800306A2313704FF435
:101D70000060032311465371FFF7D6FF8020FFF761
:101D8000D3FF0220FFF7D0FF4FF40060FFF7CCFF36
:101D90004FF48070FFF7C8FF4FF07E53C1F8103149
:101DA000C1F81431C1F81831C823A1F8FA30A44B96
:101DB00081F824654FF48030C1E93B034FF0000BFC
:101DC000A04BC1F8F43001F59470C1F81CB1C1F812
:101DD00020B1C1F824B1A1F8E46081F8E660C1F84F
:101DE000FC60A1F80061C1F8E86081F8F860FFF7D5
:101DF0005AFE01F5DA70FFF74DFE40F2DC53A1F810
:101E00003E31914BA1F83861C1E950438A460C46F6
:101E10000D464FF01909032ECCBF012300238AF889
:101E200048310CBFB5F84401B5F83E0140F6CA028E
:101E300040F2EE2100F0D7FB0136A0F2EE20122E88
:101E400090FBF9F0C0B28AF849010AF1020AE2D126
:101E50004FF4F0534FF480797C48A5F83A31A5F857
:101E60003C9107F059FA7A4BC5F88831794BC5F89F
:101E7000D030A3F1FA73643BC5F8D43003F5602386
:101E800003F5CB73744AC5F8D830744B7448A5F881
:101E9000869100264FF0C8094FF0010AC5E93723A3
:101EA00085F87C61A5F88C9185F88EA1FFF706FE78
:101EB00040F6AC53AB816B4A3B68AE731A6002F1DB
:101EC0000342A2F51D22A2F29D725A606649674A3A
:101ED000C3F844B0C3E90212654A1A612D225A754B
:101EE00041F61E62DA82634A9A6145F205329A83AC
:101EF00064229A7740F201521A845F4ADA631A64C4
:101F00005E4ADA624FF07E529A635D4ADA644B228F
:101F100083F850205B4919634FF07F504FF4FA72F9
:101F2000B1EE048A5963A3F852205862986283ED97
:101F3000128A5E6540F2DC53A5F8303544F25A133C
:101F4000A5F826353223C5F82835A5F82C6585F87F
:101F50002E6538685C3008F077F93B684A49A3F889
:101F60005A6040F60822A3F8602042F62802A3F83F
:101F70006820152283F86C20444A1A67444A5A673D
:101F8000444A83ED198A9A6783F87CA0424807F097
:101F900091FC3F68282387F817314FF44873A7F85E
:101FA0001A314CF60A0387F8156187F8166187F82D
:101FB000186187F81C61A5F87E3140F21453A5F82A
:101FC000803185F88261A5F884910C23013B44F8A7
:101FD00010BFFBD1314C39464FF490722046FEF7CA
:101FE000EFF84FF49072A0183946FEF7E9F8D8F8E8
:101FF00000301A68C4F84E225A68C4F852229A680F
:10200000C4F856221A68C4F85A225A68C4F85E22E4
:102010009A68C4F86222012385F83C33022385F8CC
:102020005C34BDEC028BBDE8F84FFFF7EDBD00BF9F
:1020300034050020300500204C046C075224002099
:102040002A005802FA00200075034308A006002069
:10205000059601014C04D007B4053200204E320031
:10206000C4060020012828962828783C0A0A460041
:102070000002210A1E321E008FC2F53C00002040E3
:1020800000004040CDCCCC3E640600209A99193F18
:10209000F6287C3F1F856B3F255601081808002055
:1020A0002805002008B5FFF7D1FC18B9BDE80840A5
:1020B000FFF742BE08BD0000024A936823EA00030E
:1020C000936070473405002008B5FEF783FA234972
:1020D0008B6846F209021A4203D14FF40050FFF711
:1020E00023FE8B68DB0703D54FF40050FFF7E4FFB6
:1020F0008B68580409D50820FFF7DEFF4FF4005025
:10210000FFF7DAFF0120FFF7D7FF8B681A0706D524
:102110004FF40050FFF7D0FF0120FFF7CDFF8B6891
:102120009B0402D54020FFF7C7FF012381F8B5319A
:1021300091F886312BB191F88A3113B1002381F8DF
:102140008A31074807F0E2F8064805F0C5FA20B9D9
:10215000BDE808400348FFF7B1BC08BD34050020C6
:1021600064060020C406002010B5FFF76FFC10B90C
:10217000032004F035FA194C07F0CCF9184940F265
:102180004C522046FEF71CF894F824351549022BD2
:1021900088BF00234FF4907288BF84F824355343DE
:1021A00003F5E272234422440A6093F81C22022AB7
:1021B00084BF002283F81C220B4B1A700C2303FBF4
:1021C00002440A4B04F226541C60FFF77DFFFFF720
:1021D000ADFCBDE8104007F0B5B900BF34050020E4
:1021E00000F00308300500205224002028050020BC
:1021F00008B5FFF7B9FFBDE80840012004F0AEBA0A
:1022000008B5FFF701FDBDE80840FFF7F1BF00008A
:1022100010B5074B044683F82405FFF7F5FCFFF7DC
:10222000A3FF601CC0B2BDE8104004F097BA00BF25
:1022300034050020014B00229A60704734050020CD
:10224000014B9868704700BF3405002010B5054C5D
:10225000238818439842208002D0012004F07EFA9F
:10226000208810BDAE20002010B5064C238823EA3C
:1022700000009842208002D0012004F06FFA2088EC
:1022800010BD00BFAE200020034B1B681840003873
:1022900018BF0120704700BF800A0020024A13685F
:1022A00003431360704700BF800A0020034A0123E4
:1022B000118883400B431380704700BFAC2000207F
:1022C000034A01238340108820EA030010807047EE
:1022D000AC200020034B1B8843FA00F000F0010003
:1022E000704700BFAC2000202DE9F041714F724CC7
:1022F00004F01AF93B682268C31A934206462CDBA5
:102300006E4B1B784BB36E4D2B7801332B706D4B9E
:10231000188800F076FA08281CD8DFE800F02E05AF
:10232000BFAB9FB7824B9200DFF8A08198F80050B6
:10233000642323609DB1002101200EF097F8012154
:1023400002200EF093F8012100200EF08FF80023F8
:1023500088F80030236833443B60BDE8F0812946AB
:1023600001200EF083F8294602200EF07FF829465E
:1023700028460EF07BF80123EAE7DFF8508198F851
:1023800000506423236055B1012108460EF06EF819
:10239000002108460EF06AF801210220D5E72946FF
:1023A00001200EF063F8294628460EF05FF8294612
:1023B0000220DEE7444B1B7873B164230021012027
:1023C00023600EF053F8002102200EF04FF8012197
:1023D00000200EF04BF8BDE7782323602B7803F044
:1023E0000303022B14D0032B19D0012B0AD0012197
:1023F00000200EF03BF8002101200EF037F80021FC
:102400000220E6E7012100200EF030F80121F3E779
:10241000012100200EF02AF80121012032E00021E4
:10242000E6E7294B1B78002BD6D00221642308460F
:1024300023600EF01BF8002101200EF017F8002198
:10244000C6E7214B1B78002B84D00121084664236A
:1024500023600EF00BF800210846CEE7642300212C
:10246000012023600EF002F8002108460DF0FEFF67
:102470000221C5E764230021012023600DF0F6FF4F
:10248000002108460DF0F2FF0121B9E76423002185
:10249000022023600DF0EAFF0221CDE764232360D0
:1024A0002B78DB07A3D5002108460DF0DFFF0021C4
:1024B000B3E700BF0C00002010000020A80000209F
:1024C00053240020AC2000205424002008000020C9
:1024D00008B5002102200DF0C9FF022100200DF0F7
:1024E000C5FF022101200DF0C1FF642004F06DF84A
:1024F000EFE70000FDEEC07A17EE903A2033402B54
:1025000043D8DFED237A9FED237AB4EEE70AF1EEAC
:1025100010FA28DCDFED207A9FED1E7AB4EEE70A90
:10252000F1EE10FA22D4DFED1D7AB4EEE70AF1EEF7
:1025300010FA1EDD30EE670A37EEC00A60EE007A50
:10254000DFED176A9FED177AA7EEA67ADFED166A20
:10255000E7EE876A9FED157AA7EEA67A20EE276A46
:10256000A6EE070A704730EE470ACEE730EE070ABC
:10257000D4E79FED0F7AB4EEC70AF1EE10FA44BF2C
:1025800030EE270A37EE400AD8E79FED0A0A704777
:10259000DB0F4940DB0FC940DB0F49C0DB0FC93FF0
:1025A0009A7C2E36FAAF4FB93587083CA4AA2ABECA
:1025B000DB0FC9BF00000000DFED027A30EE270A12
:1025C000FFF798BFDB0FC93F80EAE073A3EBE0732E
:1025D0008B4206DB002801DD401A704702D0084418
:1025E00070470020704703468B42084603DB934246
:1025F000A8BF134618467047F0EE407AF4EEE07A32
:10260000F1EE10FAB0EE600A08D4F4EEC17AF1EE01
:1026100010FAD4BFB0EE670AB0EE410A704700234B
:102620000361704703690133012B036108D1DFEDBA
:10263000117A80ED010A80ED000AC0ED027A704740
:1026400090ED006A07EE903A70EE466AF8EEE77A8F
:1026500086EEA77AD0ED027A37EE067A30EE470A98
:1026600080ED017AE6EE807AB0EE470AC0ED037A9B
:10267000E1E700BF000000000369012BC1BF03F1C7
:10268000FF3307EE903A90ED037AF8EEE77ACCBF8D
:1026900087EE270A9FED010A704700BF0000000087
:1026A00008B5FFF7E9FFBDE8084010F003BA0000E5
:1026B00007EE900A9FED030AF8EEE77A27EE800A0C
:1026C000704700BF35FA8E3C30B5039D441AEB1AB3
:1026D0005C43521A94FBF2F4E41A601930BD90ED99
:1026E000005A08B5B0EE450AFFF766FFF0EE405A13
:1026F000B0EE450AFFF7FEFE90ED015AF0EE404ABB
:10270000B0EE450AFFF758FFF0EE403AB0EE450A4A
:10271000FFF7F0FE90ED023AB0EE405AB0EE430AF9
:10272000FFF74AFFB0EE404AB0EE430AFFF7E2FE81
:1027300025EE806A63EEC07A24EE847AC1ED017AD8
:10274000F0EE467AE5EE077A25EE843A64EE806A8A
:10275000C1ED037AF0EE437AE5EE667AA5EE067AED
:10276000E5EE436A23EE844A64EEE34A65EEA35A3B
:1027700081ED004A81ED025AC1ED047AC1ED054AAE
:10278000C1ED066A81ED077AC1ED085A08BD00B5B2
:102790008BB00246084601A9D2ED001AD2ED012AFB
:1027A00092ED022AFFF79BFFDDED047A9DED017AA1
:1027B00062EEA77AE7EE217A9DED077AE7EE027ADC
:1027C0009DED027AC2ED007ADDED057A62EEA77A20
:1027D000E7EE217A9DED087AE7EE027AC2ED017A02
:1027E000DDED067A62EEA72ADDED037AE7EEA12A97
:1027F000DDED097AE7EE822AC2ED022A0BB05DF820
:1028000004FB00230122104207D101335200092B9F
:1028100092B2F8D14FF6FF70704798B2704700003F
:10282000B4EE400AF1EE10FA0FD6B7EE007AB4EE2D
:10283000C70AF1EE10FA0BDABFEE007AB4EEC70A5F
:10284000F1EE10FA07D910F0D7B89FED040A7047DF
:102850009FED030A70479FED030A704700000000D8
:10286000DB0FC93FDB0FC9BFDFED027A20EE270A7D
:10287000704700BF35FA8E3C00230281016043603F
:102880004381838101EB4202914200D1704721F8DC
:10289000023BF9E78389026830B5058944899D4286
:1028A00001BF32F8145043685B1B43601CBF013307
:1028B000838122F8141043680289194443894160D6
:1028C00001339BB29A4298BF00234381808910B1A3
:1028D000B1FBF0F080B230BD2DE9F843089F002B2A
:1028E00005460E460CBF4FF020094FF030093B461D
:1028F00013F8011B1446013A09B1002CF8DCA0467C
:1029000004E049462846B04708F1FF38B8F1000F07
:10291000F7DC24EAE4743846804618F8011B19B93C
:10292000E41B2044BDE8F8832846B0474046F3E75F
:1029300003685A1C0260197070470000014B186848
:1029400003F0ACBD8C0A00202DE9F04788B00025CB
:1029500006460F4603921C46A846039B5A1C039248
:10296000197869B3252903D03046B8470135F4E713
:102970009A1C0392CDF810805878302802BFDA1CD8
:1029800003929878A0F13003DBB20CBF4FF001093D
:102990004FF00009092B04D804AB0A2203A900F068
:1029A00028F96C2840F08580039B5A1C03921A7802
:1029B000642A4CD00FD8252A75D005D8002ACCD14E
:1029C000284608B0BDE8F087582A4FD0632AC4D102
:1029D00014F8041BC8E7A2F16E03D9B20A29BCD8C7
:1029E0000A2BBAD801A151F823F000BFAB2A000886
:1029F0005B2900085B2900085B2900085B290008A7
:102A00009D2A00085B290008192A00085B29000894
:102A10005B2900086D2A000801220DF1140A54F800
:102A2000040B53467AB100220A2100F097F8CDF842
:102A300000A04B46049A39463046FFF74DFF054447
:102A40008BE70022E9E70A2100F0B9F8EFE701235C
:102A50000DF1140A54F8040B514623B100F0A4F808
:102A6000E5E70023F4E700F0ACF8E0E7A2F1580056
:102A70004242424105AB54F8040B102100F06EF8BD
:102A800005AB0093D5E7A0F158014A424A4154F8FA
:102A9000040B05AB102100F092F8F1E754F8043B69
:102AA00000930023C6E725215EE754F8043B1D6030
:102AB00053E76428D5D00AD82528F4D003D80028B5
:102AC0003FF47EAF49E75828DDD063287FE7A0F1C7
:102AD0006E03DAB20A2A3FF640AF0A2B3FF63DAF4B
:102AE00001A252F823F000BFAB2A00085B290008BE
:102AF0005B2900085B2900085B2900089D2A000863
:102B00005B290008432A00085B2900085B290008AC
:102B1000872A00080EB40FB505AB019053F8042BBB
:102B20000649039301A8FFF70FFF019B00221A70CB
:102B300004B05DF804EB03B0704700BF3129000812
:102B4000034B044A1A60044B00221A60704700BF0E
:102B5000880A00203D290008840A0020F0B50124DD
:102B6000B0FBF4F58D4203D200261CB91C70F0BDF9
:102B70004C43F5E7B0FBF4F5B4FBF1F704FB1500AB
:102B80002EB9002D03DC8C420CD33C46EDE7092D19
:102B900008DD002A0CBF572437242C4403F8014BCE
:102BA0000136F2E73024F8E700280B46BEBF2D229D
:102BB00003F8012B404200220A21FFF7CFBFFFF7A5
:102BC000CDBFFFF7F1BF03463038C2B2092A0FD993
:102BD000A3F16102052A02D8A3F157007047A3F1BF
:102BE0004102052A02D8A3F1370070474FF0FF30A9
:102BF00070472DE9F0410E681546984604460027B7
:102C00002046FFF7E0FF431C05D10E602046C8F8C0
:102C10000070BDE8F081A842F7DC16F8014B05FB17
:102C20000707EDE790ED037AD0ED007A37EE277ACB
:102C3000D0ED017A77EE277AC7EE276AD0ED027AD7
:102C4000C0ED046A30EE676AE6EE867AB0EE670A97
:102C5000C0ED027AF7EE007A77EEE67A67EE877AD1
:102C6000C0ED037A7047000010B50F4C20600F488C
:102C700001600F4802600F4A0F4811600F4A13604D
:102C80000F4B104A1A604FF07C525A604FF07E5141
:102C900000229A60D9601A610B4B186059609A60E3
:102CA000D9601A6110BD00BF3C0B0020400B002012
:102CB000380B0020300B0020CDCCCC3D340B002055
:102CC000740B00200AD7233C600B00202DE9F84F3D
:102CD000544B554C1B78554D13F0100C09D090F9FE
:102CE00000206388B5F9001001FB02336380BDE862
:102CF000F88F4F4BDFF868911A684E4E9178D27872
:102D0000B9F90630DFF85CA1DFF85C81002A4CD00D
:102D1000B6F90000484F1B1A83EAE372A2EBE37294
:102D20008A4230DD01228AF800206FF03101502202
:102D3000062093FBF0F0FFF756FC3B88184400B2E6
:102D4000E08038803D4B1A78002A68D0B9F9061027
:102D500040F2DC52914262DC4FF47A73E380384BEC
:102D6000D8F800201A60374B2A681A60364BB6F93B
:102D700000201A60354B9AF800201A60344BB4F9E1
:102D800006201A60B3E79AF800302BB1314B8AF86D
:102D900000C01B68C8F800302F4B19682B684A88A0
:102DA00009881844FFF71FFCC9E740F2DC52934240
:102DB000CCBFA3F2DC52D21A8A42DFF8B0B0274F60
:102DC00020DDA3F2DC500028BCBF6FF4BB62981872
:102DD000801078226FF06301CBF80000FFF703FC4E
:102DE0000123CBF800003B708AF800301A4BB6F98B
:102DF000000019682B684A8809881844FFF7F3FB1C
:102E0000E0809FE79AF8002000233B70CBF8003069
:102E1000002AEBD00F4A1268C8F80020E4E700222D
:102E20001A709CE75524002024210020580B002014
:102E3000380B0020B2200020B02000209924002070
:102E4000C00A0020BC0A0020B80A0020B40A0020F2
:102E5000B00A0020940A0020340B00202A00002031
:102E6000C421002057240020540B00204C0B0020CC
:102E700038B5124B1B681B0704D4BDE83840082046
:102E8000FFF7F2B90E4B0F4D1C8814F008040DD15A
:102E90000820FFF7DBF90C4B1A680C4B1A6040F264
:102EA000DC532B800A4B1C600A4B1C600A4B2A889F
:102EB0001A800A4BDA880A4B1A8038BD3C0F002072
:102EC000AE200020B2200020940A0020540B0020E5
:102ED0005C0B0020580B0020B6200020242100208D
:102EE000B4200020B0F90030002BB8BF5B429BB289
:102EF000B3F5487F0BD2B0F902000028B8BF4042BA
:102F000080B2B0F5487F2CBF002001207047002020
:102F1000704700002DE9F04180462DED028B4D48B1
:102F2000FFF7E0FFB0EE408AF0EE608A044600282A
:102F300000F08780484F494D3B785B075FBF484BA7
:102F40001A68484B1A60484B1B78002B7ED1454BC2
:102F500046491868424B1B684FF4FA72C01AFFF7D3
:102F600042FB0521FFF730FB414B42491860424BC1
:102F700018602B681B79584348BF7F304FF4967216
:102F8000C011FFF730FB3D4B3A493D4EA0EB08081E
:102F9000C3F800802B68987A4346584348BF1F30D7
:102FA0004FF496724011FFF71EFB3B7830600446E9
:102FB00013F0040018BF2B68324F1CBF5B7D3868CC
:102FC000314918BF08FB03004FF416123860FFF7B1
:102FD0000AFB38600028BCBF00F5FF501F304313C8
:102FE00073602B6893F8203007EE903A38EE288A09
:102FF000F8EEE77ADFED258A67EE887A04EB603435
:1030000067EEA87A9622FDEEE77A6FF0950117EE4B
:10301000900AFFF7E8FA2B6893F8203007EE903A11
:10302000F8EEE77A241A67EE887A962267EEA87A95
:103030006FF09501FDEEE77A17EE900AFFF7D3FAED
:10304000B060BDEC028B2046BDE8F081104B1868E3
:1030500099E700BFE4200020562400203C0B00200C
:10306000940A0020540B00202A0000200CFEFFFFD1
:1030700024000020D4FEFFFFA80A0020A40A00209C
:10308000980A00205C0B00200080DAFF0000003B63
:103090004C0B002070B5174B174D18481C682B8837
:1030A000B0F90020164901331BB2A2421E460BDACA
:1030B0009C42DCBF00231E4601EB86012B8081ED84
:1030C000000A0132028070BD0E482B8002889C42AB
:1030D00002F1010212B204D100232B8081ED000A1B
:1030E000F0E701EB8301944281ED000AEAD100236D
:1030F0000380E8E71C00002018000020BA20002010
:10310000F40A0020BC2000200A4A0B49B2F9003022
:1031100001EB830191ED000A0849013309681BB2F4
:103120008B42138004BF00231380054A1388013BA0
:1031300013807047BC200020F40A00201C000020EF
:10314000BA200020044BB3F90000044B1B68C31ADB
:1031500058425841704700BFBA2000201C00002090
:10316000124B134AD3ED007A12491348F5EE407A18
:10317000F1EE10FA4FF0000303D113600B6003600F
:103180007047F0EE086A86EEA77A80ED007A27EEA7
:10319000A77A67EE877A86EE876AF7EE006A86EE90
:1031A000A77A81ED006A82ED007A70471400002052
:1031B000E00A0020E40A0020E80A002008B5BDEE7D
:1031C000C07A1D4B83ED007AB6EE007AF4EEC70AA2
:1031D000F1EE10FAF0EE407A2DDCFFF7B3FF18B3F2
:1031E000FFF792FF154B164993ED007A154B164ADF
:1031F00030EE070A77EEC07AC3ED007AB1F90030FD
:10320000002BB8BF5B429BB21E2B07D8B1F902302E
:10321000002BB8BF5B429BB21E2B09D90B4B13602E
:10322000BDE80840FFF79CBF094B93ED000AD9E7C2
:103230004FF08043F3E708BDAC0A0020D80A002015
:10324000DE200020CC0A0020140000200000A04056
:10325000DC0A002038B50E4D2DED028B0EF03EFC41
:103260002B68834204460FD0C31A08EE103ADFEDF4
:10327000097AB8EE488A28EE278A0EF07BFCF0EE39
:10328000480AFFF79BFF2C60BDEC028B38BD00BFE6
:10329000440B00206F12833A014B1868704700BF3F
:1032A000940A0020104B10B5012000241C6001F08E
:1032B00065FD0E4A002313700D4A40F2DC51118067
:1032C0000C4A0D4913600D4A13600D4B4FF07E52AE
:1032D0001A6059609C60DA601C610A4B1A60596080
:1032E0009C60DA601C6110BDD00A00202000002024
:1032F000B22000205C0B0020CDCCCC3D580B002030
:10330000740B0020600B0020704B2DE9F0411C680D
:1033100042F20F72041B94422DED048B42D91860C7
:1033200044F620639C4202D9012001F027FD684D3C
:103330002B782BB1674B1B785B0701D4FFF7B2FFEB
:10334000FFF788FF644B654E1B68654F9FED651A5C
:10335000DFED650A002BC9BF644ADFED657AD2ED67
:10336000026A07EE903AC4BFF8EEE66AB8EEE77A72
:10337000604BC8BFC6EE877A93ED000AC6ED007AAF
:1033800027EE800AC7ED007AFFF736F9012086EDB7
:10339000000A01F0F3FC584AB2F90030052B05DCB5
:1033A00001331380BDEC048BBDE8F08107EE904A39
:1033B000DFED526A524B534ADFF88081F8EE677AAC
:1033C00087EEA67AD3ED006A4F4B93ED006A4F4B20
:1033D00026EE866AD3ED007AE6EE077AC3ED007A30
:1033E0004B4B93ED006A4B4B26EE866A93ED000A39
:1033F000A6EE070A92ED006A474A66EE866A92EDEB
:10340000008AA6EE878AD6ED006A82ED008A77EE02
:10341000A67AB6EE006A67EE877AF0EE406AE7EECB
:10342000866A3E4A3E4ED2ED008AE6EE878A30EE4C
:10343000270A38EE288AC2ED008A3A4A83ED000A4C
:1034400082ED008A0FF0D8FBB0EE480A09EE100AB0
:103450000FF0D2FBB0EE680A05EE100AFFF71AFE75
:103460003148B8EEC90AFFF7DDFB3048F0EE405AAC
:10347000B8EEC50AFFF7D6FBB0EE408AB0EE650A9B
:103480000FF0BAFBB0EE480A044630600FF0B4FB10
:10349000274BD8ED000A186097ED000A2046FFF789
:1034A00039FD244B052118603B683068C8F80030AE
:1034B000FFF78AF8204B18603368002BB8BF5B42D7
:1034C000C82BC4BF01232B706CE700BF900A0020FB
:1034D0002000002056240020E00D0020C40A002017
:1034E000F00A002000004844000048C4F40D002009
:1034F00000000000D80D0020B820002000247449EE
:10350000CC0A0020E80A0020E00A0020D40A0020AB
:10351000E40A0020D00A0020D80A0020DC0A00209B
:10352000480B0020C80A0020600B0020740B00200C
:10353000940A0020580B0020500B0020EC0A0020B9
:10354000024B034A1B68034413607047940A00202F
:10355000540B0020014B1868704700BF480B002037
:10356000094BB3F900305A1C0CD0084A106810F00F
:10357000080008D0064A1068323B8342CCBF0020C6
:103580000120704700207047280000203C0F0020D9
:10359000940A0020094B02781860C821084B642067
:1035A00012FB00125A6007480022C3E90222C3E955
:1035B0000422C3E906221A8409F09ABA980B002063
:1035C0009C0B0020880B0020044B1860044B05481E
:1035D00000221A809A7009F08BBA00BF940B002069
:1035E0009C0B0020880B0020014B9878704700BF8F
:1035F0009C0B0020014BD878704700BF9C0B00202B
:10360000014B01229A7070479C0B0020044A4FF432
:103610007A73B0FBF3F0936803449360704700BF84
:103620009C0B002008B502F07FFF034B012298603D
:1036300083F8212008BD00BF9C0B002008B502F0D4
:1036400073FF054BDA689860801AC82884BF01228E
:1036500083F8212008BD00BF9C0B002008B502F0B4
:1036600063FF054B9A68D860801A5A68904284BFFD
:10367000002283F8212008BD9C0B00202DE9F74F84
:10368000DFF878B19BF80220002A00F0AA80564E9D
:103690009BF82140DFF868813578D8F80030DFF8F2
:1036A00058A10193012C05F0040514BF032700273E
:1036B0004FF000099BF8201005290DD8DFE801F034
:1036C0000323274A627E85B1012C05D00520FEF731
:1036D000EDFD464B02221A70002F00F08280384622
:1036E00003B0BDE8F04F03F033B8019B5A014FF42B
:1036F000806005D5FEF7AAFD0022CBF81020EBE78D
:10370000FEF7B2FDF8E7012CD4D105221FE0012C11
:1037100004BF05228BF8202065B1354A1268B2F942
:103720000E00344A508090801080334800684088F2
:10373000D0800F4602F0F8FEDBF81420904201D84A
:10374000002D4AD142F21072CBF81C2003228BF8D4
:103750002020AFE7327842F002023270FDF7BCFB66
:1037600002F0E2FEDBF81C200244CBF81820042211
:103770008BF820204FF48060FEF776FD0520FEF7E1
:103780009FFD97E7012C11D102F0CEFEDBF8182047
:103790008242A1D203F0B0FA18B9D8F80020D307BA
:1037A0009AD4327822F002023270AEE702F0BCFE08
:1037B000DBF81C200244CBF818208DE702F0B4FEA1
:1037C000DAF800208BF82090D2888BF803906423DD
:1037D00003FB0200CBF81000CCE7012C3FF46AAFEA
:1037E0007AE703B0BDE8F08F56240020F7250020CB
:1037F000940B0020C4210020980B00209C0B00207B
:103800003C0F002008B51E4B1B785A0737D51D4BBF
:103810001B78002B33D01C4B1B88DB072FD51B4A92
:10382000B2F90030002BB8BF5B429BB2B3F52F7FDB
:103830001BD8B2F90230002BB8BF5B429BB2B3F584
:103840002F7F12D81249B1F90030002BB8BF5B426C
:103850009BB242F6E062934207D8B1F90230002BE6
:10386000B8BF5B429BB2934209D90A4B1B6833B97C
:103870000220FEF71BFDBDE80840FDF72DBB08BD8B
:1038800056240020B4000020AE200020E4200020B8
:10389000EC2000204C1200202DE9F04F2DED028B82
:1038A000A549DFF8CC92DFF8CC82DFF8CCA28DB04E
:1038B000CDE90923B1F90030B1F90220002BB8BFDE
:1038C0005B42002AB8BF52429BB292B2934238BFC9
:1038D0001346B3F5FA7F28BF4FF4FA730593974B5D
:1038E0000293974B08930025964B0793CDE9035518
:1038F000954B0693431C064601938B462F462C4658
:10390000924B1B889B0730D0022C2ED0099ABBF912
:10391000000051424000FEF766FE8D4B0A9A33F9D3
:103920001430B17F32F91420C31A307A1344C1EB3A
:10393000817CA1EB8C025843C1EB8C014FF0640CED
:1039400090FBFCF00493FEF74EFE049B0390DAF824
:1039500000008049184442F21072FEF744FECAF893
:103960000000F37C43431B130493784B1B88D80758
:1039700003D5990701D4022C39D1BBF90070019B02
:1039800075491B7807EB8700000190FBF3F0B9F94C
:103990000030002BB8BF0333A0EBA300D8F80030F1
:1039A0004FF47A521844FEF71EFEB9F90030C8F8F9
:1039B0000000002BB8BF5B429BB2B3F5206F0AD862
:1039C000022C0BD15C4BB3F90430002BB8BF5B4227
:1039D0009BB2642B02D90020C8F800007D2390FB25
:1039E000F3F0019BDD7A454348BF3F35AD11574B9E
:1039F0001B889A0740F18E80022C00F08B80059B7B
:103A00000498C3F5FA7203FB07F1039B03FB021151
:103A1000059B6B434FF4FA7C00FB023391FBFCF1F6
:103A200093FBFCF3B9F900204C48002A005DB8BFB5
:103A30000332921012FB00F26FF04F0092FBF0F293
:103A40000A4496F8551008EE102A51B144480B93D9
:103A5000B8EEC80A00EB840002F0F4FC0B9BBDEE4C
:103A6000C08A089939F9022B31F902CB08910899DB
:103A7000B2EB0C0C21F8022C079A1168069A126816
:103A800048BF0CF1030C0A4402EBAC0200EE102A12
:103A9000069A42F8041B0692079A4FEAAC0042F8D5
:103AA000040B96F85410079251B12E480B93B8EEC0
:103AB000C00A00EB840002F0C5FC0B9BBDEEC00AFF
:103AC00018EE102A91B2284A10EE100A125D5043E7
:103AD0000246264800789BB248BF1F32C2F34F12FD
:103AE0000B4408BB9B1A029A1380029B0233029379
:103AF000019B01340133032C019308F104080BF1FD
:103B0000020B0AF1040A7FF4FBAE0DB0BDEC028B90
:103B1000BDE8F08FDB0701D5022C02D12B463946D8
:103B200080E7DDE903137DE7022C01D01344DAE7D7
:103B30009B1A024A9380D8E724210020D22000203B
:103B4000C6200020FC0B0020F00B0020AE2000203F
:103B5000DE200020F0D8FFFF80C1FFFF612400209D
:103B6000380C00202C0C00205B240020192600209B
:103B7000BE2300208C0C0020780C00202DE9F04F93
:103B80002DED028B8DB0CDE90921B2490B93B1F92E
:103B90000030B1F90220DFF8FC82DFF8ECA2DFF898
:103BA000FC920291002BB8BF5B42002AB8BF524280
:103BB0009BB292B2934238BF1346B3F5FA7F28BF47
:103BC0004FF4FA730593A44B0893A44B0793A44BAB
:103BD0000693002400F10C03054601932746264670
:103BE0000494A3469F4B1A8892072CD0029B099AF3
:103BF000B3F9000051424000FEF7F5FC9A4BA97F53
:103C000033F91B200B9B861A33F91B20287A1644A4
:103C1000C1EB817CA1EB8C027043C1EB8C014FF0B6
:103C2000640C90FBFCF0FEF7DEFC0490D9F8000079
:103C30008E49304442F21072FEF7D5FCC9F80000FC
:103C4000EE7C46433613874B1A88D30701D590077D
:103C50002ED5029BDAF80000B3F90070019B84496D
:103C600013F80B2C07EB8704240194FBF2F4B8F94A
:103C70000020002AB8BF0332A4EBA20420444FF472
:103C80007A52FEF7B0FCB8F90020019B002AB8BFB9
:103C9000524292B2B2F5206F88BF0020CAF80000ED
:103CA0001C787D2290FBF2F0444348BF3F34A411BE
:103CB0006C4B1A88910740F1C580059BC3F5FA71DA
:103CC00003FB07F0049B03FB0100059B03FB04F2CD
:103CD0004FF4FA7C06FB012292FBFCF3039390FB6A
:103CE000FCF0B8F90010634B002913F80BC0B8BF03
:103CF0000331891011FB0CF16FF04F0C91FBFCF1BB
:103D00000B1895F8551008EE103A41B15A48B8EE24
:103D1000C80A00EB8B0002F095FBBDEEC08A089B41
:103D200038F9021B33F9020B0893089A081A22F893
:103D3000021C079A06991268096848BF03301144AB
:103D400001EBA00100EE101A069941F8042B079A26
:103D50000691831042F8043B95F85410079241B144
:103D60004648B8EEC00A00EB8B0002F06BFBBDEEDC
:103D7000C00A039B424918EE102A11F80B101A448E
:103D800010EE103A4B431946029B48BF1F31A2EB7D
:103D900061124FEA4B0002333A490293019B0A52E7
:103DA0000BF101020133022A0AF1040A09F10409A4
:103DB00001934FF0010B7FF415AF0A9B254A9B79C5
:103DC0009488314E314AB06831490F3314FB03F403
:103DD000304BB3F90430002B4FEA2414B8BF03333F
:103DE000A4EBA307AB7B07FB0300B060FEF7FBFB74
:103DF000002CB8BF6442332CA8BF0020264BB06013
:103E0000EC781B787C43032B4FEAA41409D9B5F84E
:103E10005220B2F5FA7F04D220465142FEF7E3FB6E
:103E20000446B0684FF480726FF0FF0140F34F30EA
:103E3000FEF7D9FB134B04449C800DB0BDEC028B04
:103E4000BDE8F08FD30747BF049803960394384624
:103E500047E700BF24210020BE200020D80B00200F
:103E6000D00B0020AE200020DE200020F0D8FFFF85
:103E700080C1FFFF61240020380C00202C0C0020A2
:103E80005B240020D22000208C0C0020FEFFFF0FBE
:103E9000020000F0BE23002064240020780C0020E3
:103EA0002DE9F04F8BB0CDE906210893964B974A48
:103EB0001B8813F00203064613D0B2F90030B2F9A2
:103EC0000220002BB8BF5B42002AB8BF52429BB20F
:103ED00092B2934238BF1346B3F5007F28BF4FF428
:103EE00000730193894B0593894B0493894B03938A
:103EF000DFF84C92DFF850B2DFF850A2DFF85082C2
:103F000006F10B0302930027059B834933F9024B0B
:103F10000593049B53F8040B049339F9023B002BDF
:103F2000B8BF03336400A4EBA3034FF47A521844E0
:103F3000FEF759FB39F9023C029A002BB8BF5B42ED
:103F40009BB2B3F5206F049B88BF002043F8040C9C
:103F500012F8013F0292C5115D4312F80B3C5C431D
:103F6000694B1B889B074FEAA5154FEAA41433D071
:103F7000059B069A33F9020C51424000FEF733FBD1
:103F8000664B089A33F9173032F917206449C31A7F
:103F9000D8F800001344184442F210720993FEF757
:103FA00022FBC8F80000099BB27F307A02EB820244
:103FB00058435142C011FEF716FBD8F80020F37C9D
:103FC0005343019AA5EB23355543241A6D125443EC
:103FD00005EB233500EB642439F9023C514A96F88D
:103FE0005510D25D002BB8BF03339B1013FB02F3B7
:103FF000A4EBA31461B107EE904A4B48B8EEE70A70
:1040000000EB870002F01EFAFDEEC07A17EE904A30
:10401000039A39F9023C32F9020B0392181A039AF7
:1040200048BF033022F8023C8110DBF80020DAF8A8
:1040300000304BF8041B4AF8042B134496F8541034
:1040400003EBA00300EE103A41B13848B8EEC00AC5
:1040500000EB870002F0F6F9BDEEC00A344B10EE1B
:10406000102ADB5D2C445343A4EB6314314B23F83B
:1040700017407B1C022B08F104084FF001077FF466
:1040800043AF079B214A9B799488214D2A4AA8680F
:104090002A490F3314FB03F4294BB3F90430002BE6
:1040A0004FEA2414B8BF0333A4EBA307B37B07FB89
:1040B0000300A860FEF797FA002CB8BF6442332CC7
:1040C000A8BF00201F4BA860F4781B787C43032B0B
:1040D0004FEAA41409D9B6F85220B2F5FA7F04D2F7
:1040E00020465142FEF77FFA0446A8684FF48072DA
:1040F0006FF0FF0140F34F30FEF775FA0D4B0444AB
:104100009C800BB0BDE8F08FAE2000202421002061
:104110008C0C0020C220002080C1FFFFDE20002088
:10412000F0D8FFFF61240020380C00202C0C002068
:104130005B240020D2200020FEFFFF0F020000F0D1
:10414000BE23002064240020E80B0020E00B0020A8
:10415000780C00202DE9F04F2DED0A8B044687B036
:1041600090F854000593CDE90321002800F0068261
:1041700032220121FEF737FA07EE900A9FEDD57A39
:10418000F8EEE77A87EE278AD34BD44A18880121C4
:10419000FEF729FAD24B1B880AEE100ADFEDD1AAEE
:1041A000B8EECAAA98076AEE2AAA38EE2A8ACAEE98
:1041B00088BA40F1E681CC4AB2F90030B2F9022067
:1041C000002BB8BF5B42002AB8BF52429BB292B2EA
:1041D000934238BF1346B3F5E17F28BF4FF4E17334
:1041E00007EE903A9FEDC17AF8EEE77A87EE87CA3C
:1041F000BF4B0193DFF850B3BE4BDFF85093DFF8AD
:104200005083BD4FDFF8D8A2029304F10C060025BD
:10421000DFEDBA9ADFEDBACAB0EE69BA019B33F9A5
:10422000022B019308EE902AF8EEE88AAE4BF5EEE9
:10423000047A68EEA78A33F91530FDEEE88A00EEBD
:10424000103ABAF80030F8EEE88A990768EEAC8ABE
:10425000B8EEC08A54D078EE087A039AFDEEE77A79
:10426000514217EE900AFEF7BEF9A64B9FEDA66AE3
:1042700033F91530C01A059B33F915301844A37F64
:1042800007EE103A07EE900A237AB8EE477AB8EEB6
:10429000E79AF1EE047A27EE277A07EE903AF8EEE5
:1042A000677AF1EE476A67EE897ABDEEC77A67EE04
:1042B000867A17EE102AFDEEE77ABDEEE67A17EE63
:1042C000900A17EE101AFEF78EF997ED000AB3EE7A
:1042D0000E1AAAEE890AFBEE0E0A0BEE100AFEF782
:1042E0008BF987ED000AE37CDFED887A09EE903ADE
:1042F000F8EE699AB8EECBBA69EE809A69EEA79AA1
:10430000BAF80030DA0700F14281019B33F9023C30
:10431000002BB8BF5B429BB2B3F5206F00F2348133
:1043200016F80B3CDFED7A6A98ED000A9FED791ADA
:10433000DFED790A07EE103A68EE266AB8EE477AA2
:10434000C6EE877A77EEE87AAAEEA70AFEF754F966
:1043500088ED000A3378DFED717A09EE103AB8EE95
:10436000499ABAF8003029EE009A9B0729EE279A5D
:104370000BD578EE4B7AB0EE4B8AA7EE8C8A79EEAD
:10438000697AB0EE699AA7EE8C9A029B94F8551060
:1043900013F8012B9FED627A029307EE902AF8EE54
:1043A000E77AB0EE480A68EEE77AA7EE870A21B10D
:1043B0005C4800EB850002F045F89BED007AEBECE1
:1043C000018A78EEC78AD9ED007A574B88EEAA7A2F
:1043D0005B5D08F104080437013630EE090A37EE58
:1043E000677AE7EE2B7A07EE103AB8EEC77AE9EC77
:1043F000017A67EEC77A9FED4D7AA7EE870A0EF035
:10440000FBFB4B4B23F815006B1C022B4FF00105F7
:104410007FF404AFBDEECAAADFED467A94F8577078
:10442000454E1AEE103A23F003030AEE103A2E4BD3
:10443000B3F90480049B9D792D4BB3F90430B8EE99
:10444000CAAA00EE103ACAEE279ABAEECF0A002F97
:1044500000F0C58088EAE879E778A9EBE8790EF002
:10446000CBFB1FFA89F9354BDFED356A05FB09F502
:1044700095FBF3F5643507EE100A7D43642395FB45
:10448000F3F307EE903AB8EEC77AF8EEE77A80EAEF
:10449000E07367EE877AA3EBE07387EEA67AB3F555
:1044A000207F07EE908AB8EEE78A38EE478A02DC72
:1044B000B9F1640F70D90023B36094F85510002946
:1044C00048D0B0EE480A1F4801F0BCFFB0EE408A69
:1044D00040E000BF83F9223EA6200020A086010014
:1044E000AE200020BD378635242100200000E143A6
:1044F000BE23002061240020700C0020000000007A
:10450000CDCC4C40DE2000206F12033C0AD7A33DE7
:104510000000A04300004043000040C30AD7233CF2
:10452000A69B443B380C00205B240020F7CC92383B
:10453000D220002000803B458C0C00200CFEFFFFA9
:104540000000A042400C0020C80B0020C00B00203F
:10455000800C002038EE090ABDEEC00A10EE103AB9
:104560001BB200EE103AB8EEC00A0EF045FB464B07
:10457000988007B0BDEC0A8BBDE8F08F9FED438AB1
:1045800002E69FED43CA33E69FED410AE0E6B0EE56
:10459000699AB0EE4B8AF8E608EB88031B0193FB9F
:1045A000F7F31B1A07EE903AF8EEE77AB368394949
:1045B00067EEA97A4FF47A52FDEEE77A17EE900A89
:1045C0001844FEF710F87D23B06090FBF3F0A37B56
:1045D0005843801107EE900AB8EEE79A6DE76D0038
:1045E0000EF00AFB283515FB08F56D11281A002D71
:1045F00007EE900AB8BF6D42322DF8EEE78A40DC34
:10460000A37B254A254907EE903AF8EE677AB3680E
:1046100067EEA87A67EEA97AFDEEE77A17EE900AC0
:104620001844FDF7E0FFB0604FF480726FF0FF01B7
:104630004013FDF7D8FFFDEEE87AE27817EE903AE6
:1046400053439B1107EE903A154B1B7809EE100A65
:10465000032BB8EEC99AB8EEE78A7FF62EAFB4F80E
:104660005220B2F5FA7FBFF428AFFDEEC87A51426E
:1046700017EE900AFDF7B7FF08EE100AB8EEC88AE9
:104680001BE73846CFE700BFD2200020AF4C593C93
:104690000000000080C1FFFFFEFFFF0F020000F0DE
:1046A000642400202DE9F04F2DED088B87B0DFED5D
:1046B0009D7A05939C4B189E1B88049109EE103A35
:1046C0009A4B02921B88B8EE499A13F0020F29EE1A
:1046D000279A0546F7EE009A00F0E980F18900205C
:1046E00002F02AFFF1890446012002F025FF95F827
:1046F0005020002A00F0DE80002CB8BF6442002861
:10470000B8BF40428442B8BF0446C4F5FA7407EE0D
:10471000904ADFED876ADFED870AF8EEE77A6423D7
:1047200087EEA67AB3FBF2F307EE903A37EE697A9A
:10473000F8EEE77AB0EE690AA7EE270AB0EE691A3A
:10474000FDF75AFFB0EE40AA7B4BDFF828B2DFF846
:1047500028A2DFF82892DFF82882784EDFED78AAC9
:10476000019305F124070024049B0433022C1B5DF4
:10477000B2EE04BA40F0A180704ADFED726A92880E
:104780000A3312FB03F207EE902AB8EEE77AC7EE7F
:10479000267A6D4B95F8551033F9143007EE103A20
:1047A0006A4BB8EEC77AD3ED036A019B0393E7EE39
:1047B000667A1B78B7EC017AB0EE678A07EE903A1A
:1047C00027EE087AF8EEE77A67EE877AC7EEAA8ACC
:1047D00041B15F4800EB8400B0EE680A01F032FEA0
:1047E000F0EE408A97ED027A9BED000A9FED591A90
:1047F000DFED590A69EE087A67EE877AA7EE8B0A31
:10480000FDF7FAFE89EE897ADAED007AD9ED006AD1
:10481000ABEC010A78EE677AAAEC018A27EE277AD8
:10482000D8ED007AA9EC017AE8EC016A76EEA77A75
:1048300095F85410B0EE40BA37EE870A21B14748D8
:1048400000EB840001F0FEFDB0EE087AC0EE077ABE
:10485000019B01330193039B1B78023697ED057A88
:104860009FED3F1ADFED3F0A67EE877A07EE103AB9
:10487000B8EEC77A67EE877A87EEAA0AFDF7BCFE24
:1048800078EE8B8A38EE800A0EF0B6F936494FF48E
:104890007A72FDF7A8FE354B23F814000134032C7F
:1048A0007FF462AF07B0BDEC088BBDE8F08FB0EECF
:1048B00069AA49E79FED1FAA46E7029AB6F90000E8
:1048C00003935142FDF78FFE294B33F91420059BCA
:1048D000801A33F91420039B1044144A07EE900AFF
:1048E0001188F8EEE77A11F0010FC7EE8B6A04D059
:1048F000D5ED127A66EEA77A4BE732889FED116A02
:10490000143312FB03F207EE902AB8EEE77A8B0716
:10491000C7EE067A42BF95ED137A66EE876AE6EE39
:104920008A7A36E7BD378635A6200020AE200020E3
:104930000000FA4300000000582400202421002039
:104940000000C84200004842BE2300203012002070
:10495000380C002000007A4300007AC32C0C0020A1
:1049600000009643000096C318FCFFFFD2200020F1
:10497000DE200020800C0020200C0020140C0020E1
:10498000080C00202DE9F04F2DED028B89B0CDE908
:1049900004210693924B149E1B889907054640F10B
:1049A000EC80F189002002F0C7FDF1890446012066
:1049B00002F0C2FD002CB8BF64420028B8BF4042DC
:1049C0008442B8BF04460523C4F5FA7090FBF3F0A7
:1049D000AB7F40B2DB1064226438584300210A23C5
:1049E00090FBF3F01044FDF7FEFD43B27D4C0393C2
:1049F00001F09AFD23689FED7C7ADFF824A27B4EBC
:104A0000DFF820927A4FDFF8F881C31A07EE903A68
:104A1000F8EE677A774B67EE877AC3ED007A01F09C
:104A200083FD754B0293754B206000950193002424
:104A3000059B1A1D022C12F804B040F0A080704AA9
:104A40006B4992880BF1140B12FB0BF252118A6026
:104A5000019B57F8042BB3F90010009B3078002914
:104A6000B8BF0331A2EBA10213F8011F0093514319
:104A70004143642091FBF0F1CB1195F8551008EEFD
:104A8000103AB34651B15F480792B8EEC80A00EB3E
:104A9000840001F0D7FC079ABDEEC08A5A48009BFB
:104AA0000088D9F800105043DA7AC01250433278A7
:104AB0005043642290FBF2F0084449F8040B534938
:104AC0004FF40012FDF78FFD4A4A019BD2ED007AA8
:104AD00049F8040CF5EEC07A4113F1EE10FA33F9FF
:104AE000020B019317DD029BDAED006AB3F9002097
:104AF000831A07EE903AF8EEE77AB1EE087A77EE8D
:104B0000E67AB2EE046A67EE877A87EE867A77EE07
:104B1000267ACAED007A029BBAEC017A23F8020BDE
:104B20000293009BDFED3A6A9B7D07EE903A9BF87B
:104B30000030F8EEE77A013667EE877A07EE103A32
:104B4000B8EEC77A18EE103A67EE877A08F10208D5
:104B500087EEA67ABDEEC77A17EE102AA3EBA21055
:104B60002C4A084422F814000134032C7FF460AF6F
:104B700009B0BDEC028BBDE8F08F642336E7049AE0
:104B8000B8F90000244B5142400043F82400FDF7DF
:104B90002AFD224B33F91420069B801A33F9142086
:104BA0000F4B19881044CA0715D4B8F800200BF130
:104BB000140B12FB0BF212118B073A607FF548AF12
:104BC000E97C039B41435943642091FBF0F102EBE4
:104BD00021123A603CE72A7A42431211F9E700BFFA
:104BE000AE200020440C00206F12833A582400208D
:104BF000580C0020480C0020CC200020BE230020B0
:104C000024210020380C0020A62000200000E0FF16
:104C10000000C842D2200020640C0020DE200020CA
:104C20004C0C00208C0C0020044B0022C3E9002215
:104C3000034B00221A605A60704700BF780C0020B6
:104C4000700C0020054B0022C3E900229A60044B3F
:104C500000221A605A609A60704700BF8C0C0020D6
:104C6000800C00200138042810D8DFE800F003078A
:104C7000090B0D00064B074A13607047064BFAE715
:104C8000064BF8E7064BF6E7064BF4E7064BF2E770
:104C9000854900082C000020A5460008A13E000818
:104CA0007D3B000855410008993800089FED0F7AB8
:104CB00020EE070AF6EE006A86EE807A07EE903A5A
:104CC0000B4BDFED0C6A18600B4B1A600B4B83ED3E
:104CD000007AB8EEE77A0A4BC6EE877A9FED097A3A
:104CE00067EE877AC3ED007A704700BFDB0F49405B
:104CF000BC0D002000006144B80D0020D00D002044
:104D0000D40D00204C3D0F44124BDFED136A1B689D
:104D10001A7B124B1A80124B1B8807EE103AB8EE22
:104D2000C77A104BC6EE877A9FED0F7A67EE877AC7
:104D30009FED0E7AC3ED007A0D4BD3ED037A0D4B48
:104D400067EE877A9FED0C7A67EE877AC3ED007A7B
:104D5000704700BFBC0D00200AE81C41EA2000207B
:104D600072000020D80D00200000C84235FA8E3CA9
:104D700030120020CC0D0020BD378635094B58B9C4
:104D8000C3E90000084BC3E900009860074B1860B6
:104D9000074B00221A60704700229A60054B1A6088
:104DA000F6E700BFF40D0020E80D0020DC0D002028
:104DB000E40D0020E00D002008B52DED068BF0EE8F
:104DC000409AB0EE600AF0EE41AAF0EE608A0DF073
:104DD00093FEB0EE408AB0EE680A0DF0CDFEB0EE64
:104DE000409AB0EE690A0DF0C7FEF0EE408AB0EED0
:104DF000690A0DF081FEB0EE40AAB0EE6A0A0DF02D
:104E0000BBFEF0EE409AB0EE6A0A0DF075FE1A4B4A
:104E100028EE007A29EE286A83ED007A29EECA7A14
:104E200069EE0A6AA6EE007A60EE687A83ED017A8E
:104E300028EEA97A68EE288AA6EE807AB1EE499A21
:104E400083ED027A28EE297A28EE0A8A83ED037A26
:104E50002AEE007AE6EEA97AA6EE297A83ED069A82
:104E6000C3ED078A83ED088ABDEC068B83ED047AD7
:104E7000C3ED057A08BD00BF4000002070B50546AF
:104E800014460E4641B10F4B93ED060AFDF7C8FCE0
:104E9000B1EE400A86ED000A45B10A4BD3ED080A8F
:104EA00093ED070A0DF0D4FD85ED000A44B1054BE2
:104EB000D3ED000A93ED030A0DF0CAFD84ED000A5C
:104EC00070BD00BF440D0020324BD0ED016A93ED60
:104ED000023AD3ED054A93ED086A90ED027AD3EDDC
:104EE000012A93ED044A93ED030AD3ED075AD3ED5B
:104EF000061AD0ED007A2DED048B26EEC32A93ED31
:104F0000009A64EEE63A26EE665AA2EE872AE7EEAB
:104F1000043AA7EE255A69EE478A60EE470A21EE69
:104F2000C77AE3EE278AE7EEA40AA7EE867A27EE91
:104F3000E28A24EE671A65EEE77AA6EE898AA6EE83
:104F4000801AE6EEA17A72EE096A72EEA82AC3ED23
:104F5000006A73EE806A33EE083A34EE204A74EE4B
:104F6000814A75EE875A36EE276AC3ED036A75EEFD
:104F7000216ABDEC048BC3ED012A83ED023A83ED77
:104F8000044AC3ED054AC3ED066AC3ED075A83ED33
:104F9000086A7047400000201C4BD0ED017A93ED69
:104FA000037AD0ED006A93ED006A27EE877A024615
:104FB000A6EE267AD0ED026A93ED066A1448A6EEB4
:104FC000267A93ED016A80ED007A93ED047A67EE1C
:104FD000877A92ED007AE6EE077A93ED077A93ED01
:104FE000026AE6EE877AC0ED017A92ED017AD3ED9E
:104FF000057A67EE877A92ED007AE6EE077A93ED0E
:10500000087AE6EE877AC0ED027A70474000002009
:10501000CC0C0020134BD0ED017A93ED017AD0ED4A
:10502000006A93ED006A27EE877A0246A6EE267A9A
:10503000D0ED026A93ED026A0B48A6EE267A93ED54
:10504000036A80ED007A93ED047A67EE877A92ED39
:10505000007AE6EE077A93ED057AE6EE877AC0ED00
:10506000017A704740000020C40C002010B53F4B6F
:105070002DED048B93ED018AD3ED009AB0EE480A32
:1050800004460DF039FDB0EE409AB0EE480A0DF03E
:1050900073FDF0EE408AB0EE690A0DF06DFDB0EEE2
:1050A000408AB0EE690A0DF027FD9FED316A314B61
:1050B000314883ED009A68EE885A68EE804AB0EE77
:1050C000407AA5EE867AF0EE656AB0EE644AF0EEBC
:1050D000485AA8EE064AD4EE865AE0EE466A29EE11
:1050E000065A29EE088A69EE007AF1EE688AC3ED65
:1050F000016A83ED024A83ED047A83ED078A83ED2A
:10510000035AC3ED055AC3ED068AC3ED087A1B4B5B
:10511000226894ED026A1A6062685A6083ED026A3E
:10512000D4ED014AD4ED003A66EEA46A27EE247A63
:10513000E3EE896AE4EE066AC0ED006AD4ED006A27
:10514000A5EE267AA5EE867A80ED017A94ED017AB5
:1051500028EE078A94ED007AA8EE878AA7EE868A61
:1051600080ED028ABDEC048B10BD00BFC00D002095
:10517000000000008C0D0020B80C0020680D0020FD
:10518000F0B56A4B6A4AD3ED007AB2F900209FED80
:10519000697A8BB0F1EE677ACDED017AD3ED017AC1
:1051A000654BB3F90030F1EE677A9B1ACDED027AC8
:1051B00007EE903A614BF8EEE77AB3F9002067EE1C
:1051C000877A06EE902AB3F90220B3F90430CDEDC8
:1051D000037A07EE102A07EE903AB8EEC77AF8EE97
:1051E000E66AF8EEE77A044601A904A88DED057A8F
:1051F0008DED087ACDED046ACDED067ACDED076A26
:10520000CDED097AFDF7C3FA4D4B9DED067A1B688B
:105210009B78012B40F086804A4B4B491B7813F05A
:10522000040F15D14948026892B10B68002B1D4646
:10523000B8BFDD1DA3EBE50307EE903AF8EEE77A81
:10524000013A77EE877A0260FDEEE77AC1ED007AE7
:105250000B68002BB8BF0733DB1007EE903AF8EE6F
:10526000E77A3B4E9DED040A3A4D37EE677A8DEDB5
:10527000067A0DF0C1FC33681978FDF7A5F92B68A3
:105280009DED050A03442B600DF0B6FC33681978D8
:10529000FDF79AF96B689DED060A03446B600DF00B
:1052A000ABFC33685978FDF78FF9AB68034407A866
:1052B000AB60FFF7DBFED0ED007A3368264D19783E
:1052C000FDEEE77A074617EE900AFDF77DF92B68A9
:1052D000D7ED017A03442B60FDEEE77A336817EED1
:1052E000900A1978FDF770F96B68D7ED027A0344DC
:1052F0006B60FDEEE77A336817EE900A5978FDF798
:1053000063F9AB68154A0344AB6013682344136028
:10531000134A136801331360124A13680133136090
:105320000BB0F0BD104B1B8897E700BFC00D0020ED
:105330000000002035FA8E3CD8200020EC20002010
:10534000BC0D002056240020A80C0020B00D002029
:10535000B80D0020F40D0020E80D0020E40D002021
:10536000E00D0020DC0D0020720000201FB52A4B4C
:105370009FED2A6AB3F9022007EE902AB3F90420C0
:10538000B3F9003005EE902A07EE103A244A254B77
:10539000D2ED006AB8EEC77AF8EEE77AE7EE066A71
:1053A00001A892ED017AC3ED006AA7EE867AF8EEC5
:1053B000E55AD2ED027A1C4A83ED017AE5EE867A4F
:1053C00092ED006AC3ED027A184B76EE866A93ED91
:1053D000006A76EE866A66EE806ACDED016AD2EDED
:1053E000016A37EE267AD3ED016A37EE267A27EE88
:1053F000007A8DED027A92ED027A77EE877A93ED5C
:10540000027A77EE877A27EE800A8DED030AFFF79E
:105410005BFD05B05DF804FBBE230020487D8B3AA0
:10542000200D0020040D0020380D00202C0D002040
:10543000154A0023136053609360144A136053604D
:105440009360134A136053609360124A1360536071
:10545000936090B1104B93ED000AB4EE400AF1EE68
:1054600010FA0AD693ED021AB4EE411AF1EE10FAD0
:1054700003D6D3ED010AFFF79FBC9FED081AF0EEAB
:10548000410AB0EE410AF6E7200D0020380D002059
:105490002C0D0020040D0020C00D00200000000095
:1054A00090ED010AD0ED007A20EE000A38B5A7EEA3
:1054B000A70A04460D46D0ED027AA7EEA70A0DF022
:1054C000F9FAB7EE007AC7EE007A1E4B1E4A93ED4A
:1054D000007A37EE277A83ED007A1388B0EE007AEF
:1054E000F4EEC77A0133F1EE10FA138021D5B6EE4F
:1054F000007AF4EEC77AF1EE10FA06DC9FED137A2B
:10550000F4EEC77AF1EE10FA1ADD94ED007A27EE88
:10551000277A012085ED007A94ED017A27EE277A2B
:1055200085ED017A94ED027A67EE277AC5ED027A6D
:1055300038BD9FED077AF4EEC77AF1EE10FAE4D4A5
:105540000020F5E7000D0020DC200020BD37863567
:105550000024744910B5314CD4ED013A94ED046A3D
:1055600094ED003A94ED037A94ED024AD4ED056A85
:1055700063EE867AF6EE005AE3EE077A8AB02146A9
:10558000B0EE635AE4EE267A01A8F0EE444A67EEE4
:10559000A57AF0EE435AA6EE675AE6EEE74AA3EE86
:1055A000E76AE7EE675AE4EE676AA3EE677A66EEAB
:1055B000647ACDED066AE5EE267A66EEE56A8DED53
:1055C000047AE4EE876A27EE457ACDED015AA5EE1E
:1055D000867A8DED025ACDED034A8DED056ACDED4B
:1055E000077ACDED086A8DED097AFFF759FF28B9E2
:1055F00001200AB0BDE81040FFF71ABF04F10C010A
:1056000004A8FFF74DFF0028F2D004F1180107A805
:10561000FFF746FF0028EBD00AB010BD4000002085
:1056200008B52DED028BB0EE408A9FED110AFDF713
:105630001BF9B4EEC80AF1EE10FA13DC9FED0D0A67
:10564000FDF712F9B4EEC08AF1EE10FA0DDC9FED11
:10565000080AFDF709F9C8EE007ABDEC028BB0EE3E
:10566000670A08BDF7EE007AF7E7F2EE047AF4E78E
:10567000000048420000FA4310B5354CD4ED007AE2
:10568000F4EE677AF1EE10FA41D6D4ED017AF4EE39
:10569000677AF1EE10FA3AD6D4ED027AF4EE677A30
:1056A000F1EE10FA6CBF01230023D4ED037AF4EE7F
:1056B000677AF1EE10FA2CD6D4ED047AF4EE677A1C
:1056C000F1EE10FA25D6D4ED057AF4EE677AF1EE14
:1056D00010FA68BF43F00103D4ED067AF4EE677A5E
:1056E000F1EE10FA0ED694ED077AB4EE477AF1EEA9
:1056F00010FA07D694ED087AB4EE477AF1EE10FA74
:1057000000D643B1BDE810400120FFF791BE012350
:10571000CBE70123E0E7B7EE007AF4EEC77AF1EECB
:1057200010FA06D5BFEE007AF4EEC77AF1EE10FA61
:105730000CDCFFF70FFFD4ED067AB2EE047AF0EE40
:10574000E77AF4EEC77AF1EE10FADBDC10BD00BFA9
:10575000400000200C4A0D4B1168196051685960D7
:1057600091689960D168D96011691961516959616D
:1057700091699961D169126A1A62054AD961A2F1E7
:105780000800111FFFF77ABB40000020440D0020E5
:10579000C80D002008B52D4B2D4AB3F90210D2EDEB
:1057A000087AD2ED074A92ED065A07EE101AB3F9BD
:1057B0000410B3F9003006EE901AF8EEE66AB8EE7F
:1057C000C77A67EEA60A24EEE60AB7EE006AA7EEED
:1057D000270AF0EE607AE7EE247A05EE903AA5EE1D
:1057E000456A67EEC50AF8EEE55AB1EE400AE5EE05
:1057F000860A0DF02DF99FED171ADFED170AFCF759
:10580000FBFE164BD3ED007AB0EEE77AB5EEC07A28
:10581000F1EE10FA0CDD30EE270ADFED117AB4EE6E
:10582000E70AF1EE10FA04DDDFED0E7A30EE670ADA
:1058300008BDDFED0D7AB4EEE70AF1EE10FA44BFD1
:10584000DFED087A30EE270AF2E700BFB22300202E
:10585000400000209A9949409A9949C0DC110020E3
:10586000DB0F4940DB0FC940DB0F49C000B52F4BB0
:105870002DED068BD3ED009A2D4BB3F9002007EEEA
:10588000902AB3F90220B3F90430F8EEE77A85B034
:10589000CDED017A07EE902AF8EEE77A01A8CDED7A
:1058A000027A07EE903AF8EEE77ACDED037AFFF749
:1058B000B1FB90ED019A90ED008A29EE09AAB0EEB5
:1058C0004A0AA8EE080A0DF0F5F8C8EE008AB0EE14
:1058D0004A0AA8EEA80A0DF0EDF8DFED167AB0EE50
:1058E000E87AB4EE677AF1EE10FA1BDC89EE008AF2
:1058F000B0EEC87AB4EE677AF1EE10FA12DCB0EED0
:10590000690A0DF039F9B0EE409AB0EE690A0DF06F
:10591000F3F828EE400AA9EE280A05B0BDEC068B84
:105920005DF804FB9FED040AF7E700BFDC110020DF
:10593000B2230020FFFF7F7F0000000008B50F4B5F
:1059400093ED010AD3ED007A20EE000AA7EEA70A34
:105950000DF0B0F8F1EE007AB4EEE70AF1EE10FACD
:105960009DBFF1EE027A37EEC00ADFED057A9FEDBA
:10597000050A98BF20EE270A08BD00BFF00C0020E2
:10598000CDCC4C3ECDCCCC3D38B55349534B544C8B
:105990001A680B689A422DED068B16D19FED517A4D
:1059A000D4ED007A67EE877AC4ED007AD4ED017AFF
:1059B00067EE877AC4ED017AD4ED027A67EE877AD2
:1059C000C4ED027ABDEC068B38BDD31A09EE903ACD
:1059D000454DDFED467A2B780A60F8EE699A69EE5C
:1059E000A79A83B9FFF7D6FE414BB0EE401AD3ED2C
:1059F000010A93ED000AFFF7DFF9002323606360DB
:105A0000A36001232B70FFF731FF3A4B3A4D93ED22
:105A1000089A3A4B20EE099AF0EE408A93ED010A7B
:105A2000D3ED007A20EE000AA7EEA70AD3ED027AA2
:105A3000A7EEA70A0DF03EF8DFED317A95ED007A7A
:105A4000B4EEE77AF1EE10FA48BFC5ED007AB0EE99
:105A500040AAFFF7E5FD95ED007A69EE007A27EEA2
:105A6000878AFFF76BFF274B1B6868EE007ADB071E
:105A700058BFB2EE007AC4ED027A5CBF67EE877A57
:105A8000C4ED027AF0EE007AF4EEE79AF1EE10FA45
:105A900014D5B3EE040AFCF7E7FEB4EEC0AAF1EEAB
:105AA00010FA0BD5184BD3ED007A184B29EE279A34
:105AB000D3ED027AE9EE297AC3ED027A144B154A46
:105AC000D3ED007AF0EEE88A78EEA78AC3ED008A7B
:105AD00013880133138075E7DC0C0020D8110020F7
:105AE0002C0D0020EC51783FE5250020BD37863590
:105AF000C00D00204000002034000020040D0020D4
:105B0000CDCC4C3D3C0F002030000020140D002077
